:020000040800F2
:10000000A0080020010100089B110008050D000850
:10001000991100086D010008051300080000000098
:100020000000000000000000000000005512000861
:100030006F010008000000009F110008571200081F
:100040001B0100081B0100081B0100081B01000820
:100050001B0100081B0100081B0100081B01000810
:100060001B0100081B0100081B0100081B01000800
:100070001B0100081B0100081B0100081B010008F0
:100080001B0100081B0100081B0100081B010008E0
:100090001B0100081B0100081B0100081B010008D0
:1000A0001B0100081B0100081B0100081B010008C0
:1000B0001B0100081B0100081B0100081B010008B0
:1000C0001B0100081B0100081B0100081B010008A0
:1000D0001B0100081B0100081B0100081B01000890
:1000E0001B0100081B0100081B010008DFF80CD0F1
:1000F00000F02AF8004800475D130008A00800201F
:100100000648804706480047FEE7FEE7FEE7FEE7B1
:10011000FEE7FEE7FEE7FEE7FEE7FEE7BD120008AA
:10012000ED000008D2B201E000F8012B491EFBD21D
:1001300070470022F6E710B513460A4604461946F2
:10014000FFF7F0FF204610BD064C074D06E0E068C3
:1001500040F0010394E8070098471034AC42F6D30E
:10016000FFF7C8FF0419000824190008FEE77047CC
:10017000004870473C0400200F48816941F010019D
:1001800081610E4841680E4A1140416041689210F9
:100190001140416041680B4A11434160C16841F41C
:1001A000E051C16008480021017041700749816039
:1001B00007494160704700000010024000100140F4
:1001C000FF33F3FF008808003C04002071020008A0
:1001D000D501000870B5234A23480126117811B1D2
:1001E000012918D107E08168C90414D48168090580
:1001F00011D416700FE08168C90404D48168090520
:1002000001D5022111708168C90404D581680905EE
:1002100001D40321117015494B785B1CDBB24B7084
:100220000A2B0CD300254D700C788B1C032C07D2A5
:10023000806800F4806023F81400641C0C7070BDAA
:100240000D701888598804469B8808401940084357
:100250001C402043C043400501D5567070BD557009
:1002600070BD00003C04002000100140040000208C
:1002700030B50B4C00252378022B07D0032B0ED171
:1002800003888B4209D95B1E038007E003889342F1
:1002900001D25B1CF8E7018000E00280257030BDD0
:1002A0003C0400202DE9F84FDFF8B891002409F153
:1002B000040A0AF1040B23460F270BF1040EC9E0D0
:1002C0000125A5402A40AA427DD1674ED1F804C03D
:1002D000ACEB0608B44532D014DCBCF1030F3AD0C5
:1002E00009DCBCF1000F2AD0BCF1010F1CD0BCF11D
:1002F000020F31D11DE0BCF1110F17D0BCF1120F6C
:100300002AD119E0B8F5881F19D006DCB8F5803F6E
:1003100015D0B8F5801F1FD111E0B8F5001F0ED021
:10032000B8F5041F18D10AE0CB6815E0CB681B1D97
:1003300012E0CB6808330FE0CB680C330CE08B681D
:100340002BB1012B4FF0080303D0456104E00423D7
:1003500002E0056100E00023FF2A01D8064601E023
:1003600000F104064FEA840501D9A5F12005D6F86D
:10037000008007FA05FC28EA0C0803FA05F548EAAC
:100380000508C6F800804D68ED0062D5374DAE69AE
:1003900046F00106AE61AD6924F0030605F00105E3
:1003A0000095334D06EB050CDCF80850A607360F18
:1003B00007FA06F825EA0805DFF8B880404503D1BA
:1003C0004FF0000817E044E0DFF8AC80404502D170
:1003D0004FF001080FE0DFF8A480404502D14FF054
:1003E000020808E0DFF89880404502D14FF003088A
:1003F00001E04FF0040808FA06F848EA0508CCF8CE
:1004000008804D68D9F80060ED034D4601D51643CC
:1004100000E096432E604D68DAF80060AD03554663
:1004200001D5164300E096432E604D68DBF800606E
:10043000ED025D4601D5164300E096432E604D68FF
:10044000DEF80060AD02754601D5164300E0964324
:100450002E60641C0D682A46E5407FF431AFBDE88C
:10046000F88F00000004014000001110001002404D
:100470000000014000080140000C01400010014054
:10048000001401400AB1016170470904FBE7000054
:1004900001488068704700000C0000200248816815
:1004A00002781144816070470C000020074810B5A5
:1004B000016841F010010160032000F067F800209E
:1004C00000F006F800F024F8002010BD00200240E3
:1004D00070B50D4D04464FF47A712878B1FBF0F0F9
:1004E0000A490968B1FBF0F000F0F8FB48B9102C9C
:1004F00007D200222146501E00F028F800206C6030
:1005000070BD012070BD00000C000020180000200C
:100510000C4808B5816941F001018161816901F0F0
:1005200001010091C16941F08051C161C06900F0D1
:10053000805000900448416821F0E06141F0007172
:10054000416008BD0010024000000140F0B40E4BB5
:100550001B680C46C3F30223C3F10705042D00D921
:100560000425191D072901D2002300E0DB1E012606
:1005700006FA05F1491E214099409E40761E16401C
:100580003143F0BC00F0BFBE0CED00E0064900F0C6
:10059000070208684FF6FF03184040EA0220034AAA
:1005A00010430860704700000CED00E00000FA0501
:1005B000704700002DE9F0470F46050061D0434E1B
:1005C000306800F00700B84209D2306820F0070018
:1005D00038433060306800F00700B84251D12868D5
:1005E0003B4C810712D5400703D5606840F4E060BA
:1005F00060602878000703D5606840F46050606050
:100600006068A96820F0F000084360602878C0079F
:1006100028D06868012810D02168022810D08907E6
:1006200000292EDA616821F0030101436160FFF7C0
:100630002FFF804641F288390DE021688903EFE7FA
:100640008901EDE7FFF724FFA0EB0801494502D936
:100650000320BDE8F0876068696800F00C00B0EB2B
:10066000810FEFD1306800F00700B8420BD9306835
:1006700020F0070038433060306800F00700B842CF
:1006800001D00120E5E72878400705D56068E968D2
:1006900020F4E060084360602878000706D56068B1
:1006A000296920F4605040EAC100606000F01EF843
:1006B0006168084AC1F30311515CC84006490860EB
:1006C00006480068FFF704FF0020C2E70020024050
:1006D00000100240F418000818000020100000204C
:1006E00001490120C86470470000424212A185B050
:1006F0000FC98DE80F0014A0144A006804905168D7
:10070000134801F00C03042B10D0082B0ED1C1F3B9
:100710008343C9031DF803000AD5516804AAC1F335
:100720004041515C0A4A5043B0FBF1F005B07047BC
:1007300008494843FAE700000203040506070809D0
:100740000A0B0C0D0E0F10100102000000100240E9
:1007500000127A0000093D0010B5044CA0680006A4
:1007600003D5FFF725FF8020A07210BD00100240C6
:100770002DE9F84F040070D02078C04DC00749D053
:100780006868C0F38100012807D06868C0F3810061
:10079000022809D16868C00306D52868800339D5C6
:1007A00060680028E7D035E06068B0F5803F0BD086
:1007B00010B1B0F5A02F11D0286820F48030286047
:1007C000286820F4802002E0286840F48030286007
:1007D000606890B1FFF75CFE06460AE0286840F4C6
:1007E00080202860F0E700BFFFF752FE801B6428DE
:1007F00073D828688003F7D50CE0FFF749FE06465A
:1008000005E000BFFFF744FE801B6428F0D828688D
:100810008003F7D420789A4E80074FF001094FF0FB
:10082000000839D5686810F00C0F07D06868C0F36D
:100830008100022809D16868C00306D428688007AF
:1008400014D52069012808D110E02069B0B1C6F89C
:100850000090FFF71DFE074605E00AE1FFF718FECE
:10086000C01B0228C4D828688007F7D528686169AA
:1008700020F0F80040EAC10028600DE0C6F80080D2
:10088000FFF706FE074604E0FFF702FEC01B022842
:1008900023D828688007F7D4207800072CD579481A
:1008A000A169D9B1C0F80090FFF7F2FD074604E056
:1008B000FFF7EEFDC01B02280FD8686A8007F7D546
:1008C00071484FF4FA510068B0FBF1F0009000BF9E
:1008D0000098411E0091FAD20EE080E0C0F800803E
:1008E000FFF7D6FD074604E0FFF7D2FDC01B022844
:1008F00075D8686A8007F7D42078400760D5E86922
:100900000027C00008D4E86940F08050E861E86939
:10091000012700F0805000905C480168C90513D49D
:100920000168834641F480710160FFF7B1FD8246A2
:1009300006E000BFFFF7ACFDA0EB0A0064284ED82C
:10094000DBF80000C005F5D5E06801280AD008B141
:10095000052813D0286A20F001002862286A20F0B8
:10096000040002E0286A40F001002862E06841F2D9
:10097000883B98B1FFF78CFD82460BE0286A40F077
:1009800004002862EEE700BFFFF782FDA0EB0A013A
:1009900059455AD8286A8007F6D50CE0FFF778FD4C
:1009A000824605E0FFF774FDA0EB0A0159454CD8DB
:1009B000286A8007F6D41FB1E86920F08050E8610A
:1009C000E06988B36968C1F38101022944D0022833
:1009D000C6F8608004D0FFF75BFD044638E034E0E1
:1009E000FFF756FD074604E0FFF752FDC01B022843
:1009F0002BD828688001F7D4206AB0F5803F05D154
:100A00006868A16820F4003008436860D4E90801F0
:100A10000843696821F4741108436860C6F860905F
:100A2000FFF736FD044606E025E000BFFFF730FD86
:100A3000001B022809D828688001F7D51BE000BFF9
:100A4000FFF726FD001B022802D90320BDE8F88F1E
:100A500028688001F4D40EE00128F7D06868226A83
:100A600000F48031914204D1616A00F47010884230
:100A700001D00120EAE70020E8E700000010024072
:100A800000004242800442421800002000700040F2
:100A900070B5040005D00025A56294F8510010B18E
:100AA00006E0012070BD84F85050204600F02EF87A
:100AB000022084F851002068016821F040010160A3
:100AC000D4E901010843D4E90312114308436169E1
:100AD0000843218B01F400710843E1690843216A4E
:100AE0000843A16A084321680860A069042101EA5B
:100AF0001040216848602068C16921F40061C1612B
:100B00006565012084F85100002070BD30B585B0C6
:100B100000240094019402940394006815498842CB
:100B200025D11548C16941F48041C161C16901F411
:100B300080410491816941F00801816180690F4D14
:100B400000F0080004904FF4204000900220019033
:100B50000320039069462846FFF7A4FB4FF480402A
:100B6000CDE90004694628460294FFF79BFB05B0D7
:100B700030BD00000038004000100240000C014071
:100B80002DE9F84F044690F8500000271D46164600
:100B9000894601280DD04FF0010B84F850B0FFF7C3
:100BA00077FC804694F85100BA46012804D0022709
:100BB0008EE00220BDE8F88FB9F1000F7DD0002E45
:100BC0007BD0032084F85100C4F854A0C4F83090BE
:100BD000A686E686C4F838A0A4F83CA0A4F83EA0F7
:100BE000C4F844A0C4F840A0A068B0F5004F04D1F8
:100BF0002068016841F4804101602068016849066D
:100C000003D4016841F040010160E068B0F5006F75
:100C1000606803D030B3012E24D040E008B1012E2B
:100C20001CD1206B21680088C86006E020688168BC
:100C3000890709D5216B0988C160206B801C20635E
:100C4000E08E401EE08609E0FFF722FCA0EB0800E2
:100C5000A84202D3681C01D031E07DB3E08E0028A9
:100C6000E4D11FE0206B21680078087306E020685B
:100C70008168890709D5216B09780173206B401CB5
:100C80002063E08E401EE08609E0FFF701FCA0EB48
:100C90000800A84202D3681C01D010E075B1E08EB4
:100CA0000028E4D142462946204600F079FA08B1EE
:100CB00020206065A06820B107E008E0FFE7032777
:100CC00006E02068C16880680090606D00B101276F
:100CD00084F851B084F850A038466BE710B5401E38
:100CE000B0F1807F01D3012010BD4FF0E02460619E
:100CF0000F21601700F007FB0020A0610720206192
:100D0000002010BDFEE77CB50C46052935D242F225
:100D10001071B0FBF1F28DF80420B0FBF1F201FB91
:100D200012004FF47A71B0FBF1F28DF80320B0FBA2
:100D3000F1F201FB12006421B0FBF1F28DF8022008
:100D4000B0FBF1F201FB12000A21B0FBF1F28DF8C9
:100D50000120B0FBF1F201FB12008DF8000000252C
:100D60006E4608E0601B304410F8010C303000F093
:100D700007F86D1CEDB2A542F4D3641CE0B27CBD53
:100D800070B50A4B00EB8004094D0A48196800222F
:100D9000A618521CAE5D4654D2B2491C052AF7D3A0
:100DA00000224254491C196070BD00000000002060
:100DB000F41300083C0000202DE9FF4F00240E46EC
:100DC0000746802801D9402E65D80320A0EB4200B9
:100DD00055B24FFA80F85CE006EB050B07EB04090F
:100DE0000BF0FF0109F0FF00039A00F085F8A6EB75
:100DF000050A0AF0FF0109F0FF00039A00F07CF8F1
:100E0000A7EB04090BF0FF0109F0FF00039A00F0C3
:100E100073F80AF0FF0109F0FF00039A00F06CF884
:100E200006EB040B07EB05090BF0FF0109F0FF00CF
:100E3000039A00F061F8A6EB040A0AF0FF0109F03A
:100E4000FF00039A00F058F8A7EB05090BF0FF012B
:100E500009F0FF00039A00F04FF80AF0FF0109F0D3
:100E6000FF00039A00F048F8B8F1000F07DA08EB2A
:100E70008400801D641C4FFA80F864B209E0611B95
:100E800008EB81000A30641C6D1E4FFA80F864B2D2
:100E90006DB2AC42A0DDBDE8FF8F00000020054927
:100EA00002464FF480630A54401C80B29842FAD341
:100EB000704700003C00002018280ED808290CD8E4
:100EC000C9018039401E00EB40004FF6FF7289B225
:100ED00002EA400008440149086070470000002011
:100EE00010B500F05DF8FFF7D9FFBDE810400148EC
:100EF00000F0DAB83C00002070B5802818D84029EE
:100F000016D8CE0800EBC6140A4D76420123285DA0
:100F100001EBC6018B4022B1012A04D0022A04D081
:100F200005E0984303E0034300E0434098B22855AE
:100F300070BD00003C00002030B50546002400F0E4
:100F400001FA04E06D1CFFF71BFF641CE4B2287873
:100F50000028F7D1204630BD70B50346162801D8C9
:100F6000082901D9162308211846FFF7A5FF0024F8
:100F7000074DC3F1160605E0285D08B1FFF700FF35
:100F8000641CE4B2A642F7DCBDE8704000F0DAB9B8
:100F90001C000020014800F087B800003C00002041
:100FA00070B501222B4D140321462846FFF76AFA3B
:100FB0000122D1022846FFF765FA601E00F04CF8C6
:100FC000002221462846FFF75DFA322000F044F85F
:100FD000012221462846FFF755FA322000F03CF85E
:100FE0000021AF2000F03EF80021402000F03AF848
:100FF0000021A02000F036F80021A62000F032F8F1
:101000000021A42000F02EF80021A22000F02AF8F0
:101010000021C82000F026F800212F2000F022F83F
:101020000021252000F01EF80021F82000F01AF819
:101030000021084600F016F80021812000F012F887
:101040000021222000F00EF8BDE870400021AF2002
:1010500000F008B8000C014001E0401E80B20028FA
:10106000FBD1704773B50E4E0C464FF4006500225D
:1010700029463046FFF706FA69100CB1012200E05C
:1010800000223046FFF7FEF90A230122694605488F
:10109000FFF776FD012229463046FFF7F3F97CBDC4
:1010A000000C01404804002070B506460021402095
:1010B000FFF7D8FF5FF0000444F0B0000021FFF715
:1010C000D1FF00211020FFF7CDFF00210420FFF702
:1010D000C9FF002516F8010B0121FFF7C3FF6D1CA6
:1010E000EDB2802DF6D3641CE4B2082CE4D370BDBD
:1010F00070B586B0002418480094019402940394BB
:10110000816941F020018161816901F02001049130
:10111000816941F008018161816901F00801049150
:10112000816941F00401816180690C4E00F0040086
:101130004FF4E0550490002229463046FFF7A2F90B
:1011400001200095CDE90104022003906946304654
:10115000FFF7A8F806B070BD00100240000C014077
:101160000C480B49022201604FF48271416000215A
:101170008160C0E903120122426152028261202291
:10118000C0E90721416281620A21C162FFF780BC88
:101190000038004048040020FEE7FFF7DDBA704742
:1011A00038B50B46009204460022802100F008F872
:1011B000002804D0606D40F020006065032038BD39
:1011C0002DE9F0411D4617460E460446DDF818800D
:1011D00008E0681C06D0FFF75BF9A0EB0800A84206
:1011E0000BD255B12068806836EA000030D000206C
:1011F000B842EED10020BDE8F0812068416821F0BE
:10120000E00141606068B0F5827F0BD1A068B0F565
:10121000004F02D0B0F5806F04D12068016821F042
:1012200040010160A06AB0F5005F09D12068016843
:1012300021F4005101602068016841F4005101600F
:10124000012084F85100002084F850000320D2E7E8
:101250000120CDE7704710B5FEF78AFF4068804750
:10126000BDE81040FFF71AB930B58FB028216846A5
:10127000FEF75FFF14210AA8FEF75BFF01210804B7
:10128000CDE900100024029402250491CDE9075015
:101290004FF4E01009906846FFF76AFA0F20CDE995
:1012A0000A056802CDE90C4002210AA80E94FFF756
:1012B00081F9FFF715FA0FB030BD00000D48016845
:1012C00041F00101016041680B4A11404160016831
:1012D0000A4A11400160016821F4802101604168DF
:1012E00021F4FE0141604FF41F0181600449C003F5
:1012F00008607047001002400000FFF8FFFFF6FE94
:1013000008ED00E0FEE70907090E002804DB00F104
:10131000E02080F80014704700F00F0000F1E0209A
:1013200080F8141D704702E008C8121F08C1002A87
:10133000FAD170477047002001E001C1121F002A56
:10134000FBD170470020044902460A54401CC0B239
:101350002028FAD3704700001C00002008B50024A4
:10136000ADF8004072B6FFF7A1F8FFF77DFFFFF779
:10137000BFFEFFF7F5FEFFF7B3FDFEF7FDFE01210F
:101380000846FFF7E9FD15A0FFF7D6FD62B64FF45A
:10139000FA7500BFFEF7ECFE83682A460021684616
:1013A0009847FEF7E5FE4078C00701D0ADF8004051
:1013B00002210120FFF7D0FD0CA0FFF7BDFD0321A6
:1013C000BDF80000FFF79FFC012314222A214120D1
:1013D000FFF7F2FCFFF7DEFDDCE70000CFF0E8E20C
:1013E000E5F220CCC8D0212121000000436F756EAA
:1013F000743D0000000000000000005F00000007D6
:10140000000700147F147F14242A7F2A1223130854
:10141000646236495522500005030000001C224139
:10142000000041221C0014083E081408083E080869
:101430000050300000080808080800606000002024
:1014400010080402000000000000005F0000000718
:10145000000700147F147F14242A7F2A1223130804
:10146000646236495522500005030000001C2241E9
:10147000000041221C0014083E081408083E080819
:1014800000503000000808080808006060000020D4
:1014900010080402000000000000005F00000007C8
:1014A000000700147F147F14242A7F2A12231308B4
:1014B000646236495522500005030000001C224199
:1014C000000041221C0014083E081408083E0808C9
:1014D0000050300000080808080800606000002084
:1014E000100804023E5149453E00427F40004261DF
:1014F0005149462141454B311814127F102745456B
:1015000045393C4A49493001710905033649494981
:1015100036064949291E00363600000056360000BE
:101520000008142241141414141400412214080257
:1015300001510906324979413E7E1111117E7F49E0
:101540004949363E414141227F4141221C7F494960
:1015500049417F090909013E4149497A7F08080844
:101560007F00417F41002040413F017F081422411C
:101570007F404040407F020C027F7F0408107F3E86
:101580004141413E7F090909063E4151215E7F09E3
:10159000192946464949493101017F01013F40402F
:1015A000403F1F2040201F3F4038403F6314081435
:1015B0006307087008076151494543007F414100B6
:1015C00002040810200041417F000402010204408F
:1015D00040404040000102040020545454787F48A9
:1015E0004444383844444420384444487F385454B0
:1015F0005418087E0901020C5252523E7F0804041E
:101600007800447D40002040443D007F1028440085
:1016100000417F40007C041804787C08040478387A
:10162000444444387C14141408081414187C7C08AE
:101630000404084854545420043F4440203C404093
:10164000207C1C2040201C3C4030403C442810287A
:10165000440C5050503C4464544C44000836410003
:1016600000007F00000041360800100808100878CC
:1016700046414678000000000000005F00000007BF
:10168000000700147F147F14242A7F2A12231308D2
:10169000646236495522500005030000001C2241B7
:1016A000000041221C0014083E081408083E0808E7
:1016B00000503000000808080808006060000020A2
:1016C00010080402000000000000005F0000000796
:1016D000000700147F147F14242A7F2A1223130882
:1016E000646236495522500005030000001C224167
:1016F000000041221C0014083E081408083E080897
:101700000050300000080808080800606000002051
:1017100010080402000000000000005F0000000745
:10172000000700147F147F14242A7F2A1223130831
:10173000646236495522500005030000001C224116
:10174000000041221C0014083E081408083E080846
:101750000050300000080808080800606000002001
:10176000100804023E5149453E00427F400042615C
:101770005149462141454B311814127F10274545E8
:1017800045393C4A494930017109050336494949FF
:1017900036064949291E003636000000563600003C
:1017A00008142241001414141414004122140802D5
:1017B000015109067E1111117E7F494949317F4946
:1017C0004949367F01010103702927217F7F49495B
:1017D000494177087F087741494949367F10080415
:1017E0007F7F1009047F7F0814224120413F017F41
:1017F0007F020C027F7F0808087F3E4141413E7F07
:101800000101017F7F090909063E41414122010191
:101810007F010147281008071E217F211E6314083D
:1018200014633F2020205F070808087F7F407F4027
:101830007F3F203F205F017F4848307F4830007F56
:10184000007F484830414141493E7F083E413E4685
:101850002919097F20545454783C4A4A49317C5410
:101860005428007C0404040CC078447CC0385454D0
:1018700054186C107C106C44445454287C2010087C
:101880007C7C2112097C7C1028440020443C047C90
:101890007C0810087C7C1010107C38444444387C50
:1018A0000404047C7C1414140838444444000404E4
:1018B0007C04040C5050503C10287C281044281004
:1018C00028443C40407C400C1010107C7C407C4004
:1018D0007C7C407C40FC047C5050207C5020007C70
:1018E000007C50502028444454387C103844380838
:1018F0005434147C000000000000000001020304C6
:101900000607080924190008000000201C00000038
:1019100026130008401900081C000020840800005D
:101920003613000800000000000000000000000066
:101930000100000010000000000000000024F4007E
:04000005080000ED02
:00000001FF
